:020000040000FA
:10000000010A2500DF0C0200FE0C06006600260631
:100010000C0A6606120A070A6606120A4606070A4C
:1000200006052F0A94096606120A06061D0A180A12
:100030000605600A940966061A0A26064606210A7B
:100040002F0A0604070A2606270A0604070A460698
:100050002A0A2F0A940946072F0A0604070AF40CF5
:100060002A009B0C2900DB0C280066061A0A2606CB
:100070002F0AE802390AE902330AEA02310AF40CCB
:100080002A009B0C2900DB0C280066061A0A2606AB
:100090002F0AE802490AE902430AEA02410AF40C7B
:1000A0002A009B0C2900DB0C280066061A0A26068B
:1000B0002F0AE802590AE902530AEA02510A230AFE
:1000C000F40C2A009B0C2900DB0C280066061A0A97
:1000D0002606600AE8026A0AE902640AEA02620A7B
:1000E000F40C2A009B0C2900DB0C280066061A0A77
:1000F0002606600AE8027A0AE902740AEA02720A2B
:10010000F40C2A009B0C2900DB0C280066061A0A56
:100110002606600AE8028A0AE902840AEA02820ADA
:100120002606230A0604070A630C2900420C28004D
:0A013000E802980AE902960A0008A6
:1003900053085708490854084308480820085308D8
:1003A0004D084108520854082008560831082E0804
:1003B00030084A084F0853084508460820084308F3
:1003C0004F084D08500841084E08590820082D08CC
:0803D0002008490858084F08F5
:0403D8000008000811
:021FFE00EA0FE8
:00000001FF
